:040000000AEF3FF0D4
:107DCA00E7EF3EF0F2A2EDEF3EF08B700070F29218
:107DDA00F0A0F3EF3EF08B720170F090F0A2F9EF91
:107DEA003EF002700F80F092F2A409EF3FF0FF0E0E
:107DFA00D76E060ED66EF294C9EC3FF00A2E09EF42
:107E0A003FF0FA0E0A6E0E801100D09E720ED36EEB
:107E1A00896A8B6A8C6A9280929293809382938405
:107E2A00949094929494800E956E070EB46E9280FC
:107E3A000E0EC16E120EC06E010EC26E006A016A8B
:107E4A00026A0E6A0F6A0B6A056A066A126A136A7E
:107E5A00146A156A166A176A3F0E0C6E0D6EFA0ED0
:107E6A000A6E030ED56EFF0ED76E060ED66EF26A36
:107E7A00F06A800EF16EF288F086F088F28AD58E6A
:107E8A00F28E0E800EB04FEC3FF00FB0ABEC3FF02D
:107E9A0047EF3FF00E90C282C2B251EF3FF0C4509A
:107EAA00C424056EC3BE052A640E055CD8A060EF23
:107EBA003FF0630E056E1C0E055CD8A06DEF3FF017
:107ECA0018B289EF3FF018828B808B8289EF3FF0DE
:107EDA0018A289EF3FF018928B908B9218B07CEF22
:107EEA003FF000B07CEF3FF08B907DEF3FF08B804E
:107EFA0018B086EF3FF001B086EF3FF08B9289EF22
:107F0A003FF08B8289EF3FF08DEC3FF00F8012003B
:107F1A00260E055CD8A095EF3FF0630E066E1200A0
:107F2A0005500524156E15501524166E176A050E90
:107F3A00165CD8A0A5EF3FF0166E172A9CEF3FF00B
:107F4A0005501724066E200E062612000F9002B066
:107F5A00B2EF3FF00550B3EF3FF00650126E136ACE
:107F6A001250146E0A0E145C04E3146E132AB7EF4F
:107F7A003FF01350106ED7EC3FF00C6E1451106E98
:107F8A00D7EC3FF00D6E120089928B940B700BB0F8
:107F9A00D3EF3FF00C508C6E898212000D508C6E1C
:107FAA008B841200000E105CD8B43F0C010E105CDA
:107FBA00D8B4060C020E105CD8B45B0C030E105C2D
:107FCA00D8B44F0C040E105CD8B4660C050E105CC5
:107FDA00D8B46D0C060E105CD8B47D0C070E105C7C
:107FEA00D8B4070C080E105CD8B47F0C090E105CCC
:067FFA00D8B46F0C000C6E
:020000040030CA
:0400000000081F1EB7
:02000500018177
:060008000FC00FE00F40E5
:00000001FF
