:0400000038EF3FF0A6
:107E6C00BCEF3FF0720ED36E006A016A026A0D6AB3
:107E7C000B6A0C6A956A8C6A949094928B6A9690B1
:107E8C008D9096928D9292809380938293840E0E15
:107E9C00C16EA20EC06E010EC26E850ED56EF19E25
:107EAC00F18CF18AF188F292F090F092F294F288CF
:107EBC00F086F088F28AF28CF28E8B908B920CC04A
:107ECC008CFF8B82B1EC3FF08B920BC08CFF8B80C4
:107EDC00B1EC3FF08B900DA063EF3FF00D90C282A0
:107EEC00C2B276EF3FF0C3CF03F0C4CF04F0D8900A
:107EFC0004320330056E02B088EF3FF00550076E78
:107F0C009AEF3FF00550090DF3CF0EF0F4CF04F0CB
:107F1C00066A050E0E5E000E045A03E3062A8FEF66
:107F2C003FF0200E0624076E0750086A0A0E075C05
:107F3C0004E3076E082A9CEF3FF00750096E09C056
:107F4C000EF0D7EC3FF00C6E08C00EF0D7EC3FF003
:107F5C000B6E63EF3FF00A0E0F6EA60E106E102E16
:107F6C00B5EF3FF00F2EB3EF3FF01200F2B2C9EFB6
:107F7C003FF0F0B0CDEF3FF0F0B2D1EF3FF0F2B404
:107F8C00D4EF3FF0110000708D70F292110001706F
:107F9C008D72F09011000270F0921100F2940D802D
:107FAC001100000E0E5CD8B43F0C010E0E5CD8B460
:107FBC00060C020E0E5CD8B45B0C030E0E5CD8B42F
:107FCC004F0C040E0E5CD8B4660C050E0E5CD8B4C7
:107FDC006D0C060E0E5CD8B47D0C070E0E5CD8B47E
:107FEC00070C080E0E5CD8B47F0C090E0E5CD8B4CE
:047FFC006F0C000CFA
:020000040030CA
:0400000000081F1EB7
:02000500018177
:060008000FC00FE00F40E5
:00000001FF
