:0400000041EF3FF09D
:107E7E00BCEF3FF0720ED36E006A016A026A0D6AA1
:107E8E000B6A0C6A956A8C6A949094928B92969077
:107E9E008D9096928D9292809380938293840E0E03
:107EAE00C16EA20EC06E010EC26E850ED56EF19E13
:107EBE00F18CF18AF188F292F090F092F294F288BD
:107ECE00F096F088F284F28CF28E8B908B920CC02E
:107EDE008CFF8B82B1EC3FF08B920BC08CFF8B80B2
:107EEE00B1EC3FF08B900DA06CEF3FF0C282C2B2AE
:107EFE007EEF3FF0C3CF03F0C4CF04F0D89004322E
:107F0E000330056E0550076E9FEF3FF00550090DCB
:107F1E00F3CF0EF0F4CF04F0066A050E0E5E000EDF
:107F2E00045E03E3062A94EF3FF0200E0624076E4C
:107F3E000750086A0A0E075C04E3076E082AA1EFD1
:107F4E003FF00750096E09C00EF0D7EC3FF00B6EF4
:107F5E006CEF3FF0CC0E0F6EA60E106E102EB5EF1E
:107F6E003FF00F2EB3EF3FF01200F2B2C9EF3FF029
:107F7E00F0B0CDEF3FF0F0B2D1EF3FF0F2B4D4EF6E
:107F8E003FF01100F29200708D701100F0900170B0
:107F9E008D721100F09202701100F2940D701100AA
:107FAE00000E0E5CD8B43F0C010E0E5CD8B4060C5D
:107FBE00020E0E5CD8B45B0C030E0E5CD8B44F0CE4
:107FCE00040E0E5CD8B4660C050E0E5CD8B46D0CA7
:107FDE00060E0E5CD8B47D0C070E0E5CD8B4070CE2
:107FEE00080E0E5CD8B47F0C090E0E5CD8B46F0C64
:027FFE00000C75
:020000040030CA
:0400000000081F1EB7
:020005008181F7
:060008000FC00FE00F40E5
:00000001FF
