:0400000033EF3FF0AB
:107E1C0010EF3FF0F2A216EF3FF08B700070F29271
:107E2C00F0A01CEF3FF08B720170F090F0A222EFEB
:107E3C003FF002700F80F092F2A432EF3FF0FF0E91
:107E4C00D76E060ED66EF294C9EC3FF00A2E32EFC6
:107E5C003FF0140E0A6E0E801100D09E720ED36E7F
:107E6C00896A8B6A8C6A92809292938093829384B3
:107E7C00949094929494800E956E070EB46E9280AA
:107E8C000E0EC16E120EC06E010EC26E006A016A39
:107E9C00026A0E6A0F6A0B6A056A066A126A136A2C
:107EAC00146A156A166A176A3F0E0C6E0D6E140E64
:107EBC000A6E030ED56EFF0ED76E060ED66EF26AE4
:107ECC00F06A800EF16EF288F086F088F28AD58E18
:107EDC00F28E0E800EB078EC3FF00FB0ABEC3FF0B2
:107EEC0070EF3FF00E90C282C2B27AEF3FF0C450F6
:107EFC00C424056EC3BE052A640E055CD8A089EFA8
:107F0C003FF0630E056E8DEC3FF00F801200260ED5
:107F1C00055CD8A095EF3FF0630E066E120005507D
:107F2C000524156E15501524166E176A050E165C71
:107F3C00D8A0A5EF3FF0166E172A9CEF3FF0055026
:107F4C001724066E200E062612000F9002B0B2EF18
:107F5C003FF00550B3EF3FF00650126E136A12500B
:107F6C00146E0A0E145C04E3146E132AB7EF3FF080
:107F7C001350106ED7EC3FF00C6E1451106ED7EC02
:107F8C003FF00D6E120089928B940B700BB0D3EFF7
:107F9C003FF00C508C6E898212000D508C6E8B84CD
:107FAC001200000E105CD8B43F0C010E105CD8B45B
:107FBC00060C020E105CD8B45B0C030E105CD8B42B
:107FCC004F0C040E105CD8B4660C050E105CD8B4C3
:107FDC006D0C060E105CD8B47D0C070E105CD8B47A
:107FEC00070C080E105CD8B47F0C090E105CD8B4CA
:047FFC006F0C000CFA
:020000040030CA
:0400000000081F1EB7
:02000500018177
:060008000FC00FE00F40E5
:00000001FF
