:0400000035EF3FF0A9
:107E200012EF3FF0F2A218EF3FF08B700070F29269
:107E3000F0A01EEF3FF08B720170F090F0A224EFE3
:107E40003FF002700F80F092F2A434EF3FF0FF0E8B
:107E5000D76E060ED66EF294C9EC3FF00A2E34EFC0
:107E60003FF0FA0E0A6E0E801100D09E720ED36E95
:107E7000896A8B6A8C6A92809292938093829384AF
:107E8000949094929494800E956E070EB46E9280A6
:107E90000E0EC16E120EC06E010EC26E006A016A35
:107EA000026A0E6A0F6A0B6A056A066A126A136A28
:107EB000146A156A166A176A3F0E0C6E0D6EFA0E7A
:107EC0000A6E030ED56EFF0ED76E060ED66EF26AE0
:107ED000F06A800EF16EF288F086F088F28AD58E14
:107EE000F28E0E800EB07AEC3FF00FB0ADEC3FF0AA
:107EF00072EF3FF00E90C282C2B27CEF3FF0C450EE
:107F0000C424056EC3BE052A640E055CD8A08BEFA1
:107F10003FF0630E056E8FEC3FF00F801200260ECF
:107F2000055CD8A097EF3FF0630E066E1200055077
:107F30000524156E15501524166E176A050E165C6D
:107F4000D8A0A7EF3FF0166E172A9EEF3FF005501E
:107F50001724066E200E062612000F9002B0B8EF0E
:107F60003FF00550B4EF3FF0126E136A1250146EDA
:107F700006500A0E145C04E3146E132AB9EF3FF0A6
:107F80001350D7EC3FF00C6E1451D7EC3FF00D6E50
:107F9000120089928B940B700BB0D3EF3FF00C5012
:107FA0008C6E898212000D508C6E8B841200000E34
:107FB000105CD8B43F0C010E105CD8B4060C020E55
:107FC000105CD8B45B0C030E105CD8B44F0C040EDC
:107FD000105CD8B4660C050E105CD8B46D0C060E9F
:107FE000105CD8B47D0C070E105CD8B4070C080EDA
:107FF000105CD8B47F0C090E105CD8B46F0C000C68
:020000040030CA
:0400000000081F1EB7
:02000500018177
:060008000FC00FE00F40E5
:00000001FF
