:107F5600ADEF3FF0720ED36E956A8C6A92800E0E6C
:107F6600C16E120EC06E010EC26EC282C2B2B9EFEF
:107F76003FF0E00EC45CD8B0FCEF3FF0C00EC45C2E
:107F8600D8B0F9EF3FF0A00EC45CD8B0F6EF3FF0E2
:107F9600800EC45CD8B0F3EF3FF0600EC45CD8B07E
:107FA600F0EF3FF0400EC45CD8B0EDEF3FF0200E8E
:107FB600C45CD8B0EAEF3FF00A0EC45CD8B0E7EF75
:107FC6003FF0000EFDEF3FF0010EFDEF3FF0030E18
:107FD600FDEF3FF0070EFDEF3FF00F0EFDEF3FF018
:107FE6001F0EFDEF3FF03F0EFDEF3FF07F0EFDEF62
:0A7FF6003FF0FF0E8C6EB8EF3FF075
:020000040030CA
:0400000000081F1EB7
:020005008181F7
:060008000FC00FE00F40E5
:00000001FF
